:100000000C9462000C948A000C948A000C948A0070
:100010000C948A000C948A000C948A000C948A0038
:100020000C948A000C948A000C948A000C948A0028
:100030000C948A000C948A000C948A000C948A0018
:100040000C94C4020C948A000C9492020C946C02DE
:100050000C948A000C948A000C948A000C948A00F8
:100060000C948A000C948A000000000024002700F1
:100070002A000000000023002600290000000000E4
:10008000250028002B0004040404040404040202D4
:100090000202020203030303030301020408102007
:1000A0004080010204081020010204081020000012
:1000B0000008000201000003040700000000000027
:1000C0000000A20411241FBECFEFD8E0DEBFCDBFD9
:1000D00011E0A0E0B1E0E2EFF9E002C005900D927E
:1000E000AE31B107D9F721E0AEE1B1E001C01D9218
:1000F000AE3CB207E1F710E0C2E6D0E004C02197C1
:10010000FE010E94F104C136D107C9F70E940E0317
:100110000C94F7040C94000080E480937C008091A0
:100120007A00806480937A0080917A0086FDFCCF0B
:1001300080917800909179000895AF92BF92CF920C
:10014000DF92EF92FF920F931F93CF93DF936C0197
:100150007B018B01040F151FEB015E01AE18BF0878
:10016000C017D10759F06991D601ED91FC9101902A
:10017000F081E02DC6010995892B79F7C501DF9142
:10018000CF911F910F91FF90EF90DF90CF90BF9094
:10019000AF900895FC01538D448D252F30E0842FBE
:1001A00090E0821B930B541710F0CF96089501979F
:1001B0000895FC01918D828D981761F0A28DAE0F8C
:1001C000BF2FB11D5D968C91928D9F5F9F73928F13
:1001D00090E008958FEF9FEF0895FC01918D828D3F
:1001E000981731F0828DE80FF11D858D90E008950C
:1001F0008FEF9FEF0895FC01918D228D892F90E064
:10020000805C9F4F821B91098F739927089581E32A
:1002100091E00E94FB0021E0892B09F420E0822F6D
:10022000089580E090E0892B29F00E940701811158
:100230000C9400000895FC01A48DA80FB92FB11DE6
:10024000A35ABF4F2C91848D90E001968F7399270C
:10025000848FA689B7892C93A089B1898C918370EA
:1002600080648C93938D848D981306C00288F389E3
:10027000E02D80818F7D80830895EF92FF920F9310
:100280001F93CF93DF93EC0181E0888F9B8D8C8D42
:1002900098131AC0E889F989808185FF15C09FB736
:1002A000F894EE89FF896083E889F98980818370F9
:1002B000806480839FBF81E090E0DF91CF911F91A8
:1002C0000F91FF90EF900895F62E0B8D10E00F5FC9
:1002D0001F4F0F731127E02E8C8D8E110CC00FB69F
:1002E00007FCFACFE889F989808185FFF5CFCE0137
:1002F0000E941B01F1CFEB8DEC0FFD2FF11DE35A96
:10030000FF4FF0829FB7F8940B8FEA89FB898081B9
:100310008062CFCFCF93DF93EC01888D8823B9F033
:10032000AA89BB89E889F9898C9185FD03C0808100
:1003300086FD0DC00FB607FCF7CF8C9185FFF2CF7D
:10034000808185FFEDCFCE010E941B01E9CFDF91B7
:10035000CF910895833081F028F4813099F0823074
:10036000A9F008958730A9F08830C9F08430B1F43D
:10037000809180008F7D03C0809180008F77809373
:100380008000089584B58F7784BD089584B58F7DEE
:10039000FBCF8091B0008F778093B000089580915B
:1003A000B0008F7DF9CF1F93CF93DF93EBEBF0E09D
:1003B0009491E7EAF0E0D491E3E9F0E0C491CC2332
:1003C000B9F0182F992319F0892F0E94AA01EC2F58
:1003D000F0E0EE0FFF1FE458FF4FA591B4918FB7E7
:1003E000F894EC91111108C0D095DE23DC938FBFF7
:1003F000DF91CF911F910895DE2BF8CFCF93DF933C
:1004000090E0FC01E656FF4F24918A579F4FFC0174
:1004100084918823C9F090E0880F991FFC01E85966
:10042000FF4FA591B491FC01E458FF4FC591D491C1
:1004300061110DC09FB7F8948C91209582238C9305
:100440008881282328839FBFDF91CF910895623050
:1004500051F49FB7F8943C91822F809583238C931D
:10046000E8812E2BEFCF8FB7F894EC912E2B2C93A5
:100470008FBFEACF3FB7F89480911F019091200180
:10048000A0912101B091220126B5A89B05C02F3F64
:1004900019F00196A11DB11D3FBFBA2FA92F982FAA
:1004A0008827BC01CD01620F711D811D911D42E0A5
:1004B000660F771F881F991F4A95D1F70895FC0191
:1004C00001900020E9F73197AF01481B590BBC019F
:1004D00081E391E00C949D001F920F920FB60F9252
:1004E00011242F933F934F935F936F937F938F9339
:1004F0009F93AF93BF93EF93FF9381E391E00E94AB
:100500001B01FF91EF91BF91AF919F918F917F91CF
:100510006F915F914F913F912F910F900FBE0F9070
:100520001F9018951F920F920FB60F9211242F93C0
:100530008F939F93EF93FF93E0914101F0914201DC
:100540008081E0914701F091480182FD1BC09081BC
:1005500080914A018F5F8F7320914B01821741F088
:10056000E0914A01F0E0EF5CFE4F958F80934A01E5
:10057000FF91EF919F918F912F910F900FBE0F9050
:100580001F9018958081F4CF1F920F920FB60F9293
:1005900011242F933F938F939F93AF93BF93809199
:1005A000230190912401A0912501B0912601309161
:1005B0001E0123E0230F2D3758F50196A11DB11D13
:1005C00020931E018093230190932401A093250181
:1005D000B093260180911F0190912001A0912101EB
:1005E000B09122010196A11DB11D80931F0190932E
:1005F0002001A0932101B0932201BF91AF919F915F
:100600008F913F912F910F900FBE0F901F901895D3
:1006100026E8230F0296A11DB11DD2CFCF93DF9301
:10062000CDB7DEB7A1970FB6F894DEBF0FBECDBF32
:10063000789484B5826084BD84B5816084BD85B5BD
:10064000826085BD85B5816085BD80916E008160C9
:1006500080936E001092810080918100826080936F
:100660008100809181008160809381008091800071
:100670008160809380008091B10084608093B1009C
:100680008091B00081608093B00080917A00846096
:1006900080937A0080917A00826080937A008091C2
:1006A0007A00816080937A0080917A0080688093DC
:1006B0007A001092C10060E08EE00E94FE0162E0CC
:1006C00082E00E94FE0161E08DE00E94FE01E09167
:1006D0004101F091420182E08083E0913D01F0917F
:1006E0003E011082E0913F01F09140018FEC808348
:1006F00010924901E0914501F091460186E0808326
:10070000E0914301F0914401808180618083E09118
:100710004301F0914401808188608083E09143012E
:10072000F0914401808180688083E0914301F091E1
:10073000440180818F7D808328E8222E20E0322EA4
:100740003AE0432E512C612C712C00E010E00E9405
:100750008C009093300180932F0190932E01809311
:100760002D01E0EBF0E08491ECE9F0E0F490F10190
:10077000E490EE2009F4CDC081110E94AA01EE2D73
:10078000F0E0EE0FFF1FEE58FF4FA591B4918C9152
:10079000F82291E080E009F490E0E92EF82EF09242
:1007A0002C01E0922B0181E00E94D301EF2809F493
:1007B000A4C02FB7F8948091230190912401A091B7
:1007C0002501B09126012FBF90932A018093290122
:1007D00080912F0190913001C19620912D0130918F
:1007E0002E018217930744F18FB7F894C09023012C
:1007F000D0902401E0902501F09026018FBFD09287
:100800002801C09227010E948C0090932E018093B2
:100810002D018091290190912A01C81AD90AF9E87D
:10082000CF16F3E1DF06A4F282E191E00E945F02BD
:100830008AE191E00E945F02C0902701D0902801D8
:100840008091290190912A01C81AD90A0D2C000C17
:10085000EE08FF08F7FE60C06DE281E391E00E94C0
:100860003D0122273327A9012C193D094E095F09B3
:1008700019A2CE0181967C01CA01B901A30192019E
:100880000E94CF04605DF70162937F01211531055D
:100890004105510589F7E114F10419F0C7010E94DF
:1008A0005F028AE191E00E945F0280E00E94D30132
:1008B0000E943A024B015C0188EEC82E83E0D82EDC
:1008C000E12CF12C0E943A02681979098A099B09E6
:1008D000683E734081059105A8F3F1E0CF1AD10875
:1008E000E108F10828EE820E23E0921EA11CB11C43
:1008F000C114D104E104F10429F70115110509F42B
:1009000026CF0E940701882309F421CF0E9400000E
:100910001ECFF12CE12C43CFA701960119A2CE01E5
:1009200081967C01CA01B901A30192010E94CF0402
:10093000605DF70162937F01211531054105510585
:1009400089F7A9CFE1E3F1E01382128288EE93E008
:10095000A0E0B0E084839583A683B78384E091E030
:100960009183808385EC90E09587848784EC90E088
:100970009787868780EC90E0918B808B81EC90E06C
:10098000938B828B82EC90E0958B848B86EC90E04D
:10099000978B868B118E128E138E148E0895A1E282
:1009A0001A2EAA1BBB1BFD010DC0AA1FBB1FEE1FE9
:1009B000FF1FA217B307E407F50720F0A21BB30B34
:1009C000E40BF50B661F771F881F991F1A9469F7B0
:1009D00060957095809590959B01AC01BD01CF010C
:1009E0000895EE0FFF1F0590F491E02D0994F894FF
:0209F000FFCF37
:1009F200000000003D019D00CA008A01FB00D900F1
:0E0A0200ED0054494D454F5554000D0A0000BB
:00000001FF
