:100000000C9462000C948A000C948A000C948A0070
:100010000C948A000C948A000C948A000C948A0038
:100020000C948A000C948A000C948A000C948A0028
:100030000C948A000C948A000C948A000C948A0018
:100040000C9405030C948A000C94D3020C94AD021A
:100050000C948A000C948A000C948A000C948A00F8
:100060000C948A000C948A000000000024002700F1
:100070002A000000000023002600290000000000E4
:10008000250028002B0004040404040404040202D4
:100090000202020203030303030301020408102007
:1000A0004080010204081020010204081020000012
:1000B0000008000201000003040700000000000027
:1000C0000000AB0411241FBECFEFD8E0DEBFCDBFD0
:1000D00011E0A0E0B1E0E4E0FAE002C005900D928A
:1000E000A631B107D9F721E0A6E1B1E001C01D9228
:1000F000A63CB207E1F710E0C2E6D0E004C02197C9
:10010000FE010E94FA04C136D107C9F70E944F03CD
:100110000C9400050C94000080E480937C00809196
:100120007A00806480937A0080917A0086FDFCCF0B
:1001300080917800909179000895AF92BF92CF920C
:10014000DF92EF92FF920F931F93CF93DF936C0197
:100150007B018B01040F151FEB015E01AE18BF0878
:10016000C017D10759F06991D601ED91FC9101902A
:10017000F081E02DC6010995892B79F7C501DF9142
:10018000CF911F910F91FF90EF90DF90CF90BF9094
:10019000AF900895FC01538D448D252F30E0842FBE
:1001A00090E0821B930B541710F0CF96089501979F
:1001B0000895FC01918D828D981761F0A28DAE0F8C
:1001C000BF2FB11D5D968C91928D9F5F9F73928F13
:1001D00090E008958FEF9FEF0895FC01918D828D3F
:1001E000981731F0828DE80FF11D858D90E008950C
:1001F0008FEF9FEF0895FC01918D228D892F90E064
:10020000805C9F4F821B91098F739927089589E223
:1002100091E00E94FB0021E0892B09F420E0822F6D
:10022000089580E090E0892B29F00E940701811158
:100230000C9400000895FC01A48DA80FB92FB11DE6
:10024000A35ABF4F2C91848D90E001968F7399270C
:10025000848FA689B7892C93A089B1898C918370EA
:1002600080648C93938D848D981306C00288F389E3
:10027000E02D80818F7D80830895EF92FF920F9310
:100280001F93CF93DF93EC0181E0888F9B8D8C8D42
:1002900098131AC0E889F989808185FF15C09FB736
:1002A000F894EE89FF896083E889F98980818370F9
:1002B000806480839FBF81E090E0DF91CF911F91A8
:1002C0000F91FF90EF900895F62E0B8D10E00F5FC9
:1002D0001F4F0F731127E02E8C8D8E110CC00FB69F
:1002E00007FCFACFE889F989808185FFF5CFCE0137
:1002F0000E941B01F1CFEB8DEC0FFD2FF11DE35A96
:10030000FF4FF0829FB7F8940B8FEA89FB898081B9
:100310008062CFCFCF93DF93EC01888D8823B9F033
:10032000AA89BB89E889F9898C9185FD03C0808100
:1003300086FD0DC00FB607FCF7CF8C9185FFF2CF7D
:10034000808185FFEDCFCE010E941B01E9CFDF91B7
:10035000CF910895833081F028F4813099F0823074
:10036000A9F008958730A9F08830C9F08430B1F43D
:10037000809180008F7D03C0809180008F77809373
:100380008000089584B58F7784BD089584B58F7DEE
:10039000FBCF8091B0008F778093B000089580915B
:1003A000B0008F7DF9CF1F93CF93DF93EBEBF0E09D
:1003B0009491E7EAF0E0D491E3E9F0E0C491CC2332
:1003C000B9F0182F992319F0892F0E94AA01EC2F58
:1003D000F0E0EE0FFF1FE458FF4FA591B4918FB7E7
:1003E000F894EC91111108C0D095DE23DC938FBFF7
:1003F000DF91CF911F910895DE2BF8CFCF93DF933C
:1004000090E0FC01E656FF4F24918A579F4FFC0174
:1004100084918823C9F090E0880F991FFC01E85966
:10042000FF4FA591B491FC01E458FF4FC591D491C1
:1004300061110DC09FB7F8948C91209582238C9305
:100440008881282328839FBFDF91CF910895623050
:1004500051F49FB7F8943C91822F809583238C931D
:10046000E8812E2BEFCF8FB7F894EC912E2B2C93A5
:100470008FBFEACF3FB7F894809117019091180190
:10048000A0911901B0911A0126B5A89B05C02F3F74
:1004900019F00196A11DB11D3FBFBA2FA92F982FAA
:1004A0008827BC01CD01620F711D811D911D42E0A5
:1004B000660F771F881F991F4A95D1F708958F926D
:1004C0009F92AF92BF920F931F93CF93DF93CDB7BD
:1004D000DEB7A1970FB6F894DEBF0FBECDBF19A24D
:1004E000423008F44AE08E010F5D1F4F842E912C9C
:1004F000B12CA12CA50194010E94D804E62FB901CA
:10050000CA01EA3044F5E05DD801EE938D01232B5A
:10051000242B252B79F790E080E0109769F0FD01FE
:1005200001900020E9F73197AF014A1B5B0BBD0139
:1005300089E291E00E949D00A1960FB6F894DEBF7B
:100540000FBECDBFDF91CF911F910F91BF90AF90A4
:100550009F908F900895E95CD7CF1F920F920FB6AE
:100560000F9211242F933F934F935F936F937F9339
:100570008F939F93AF93BF93EF93FF9389E291E0A3
:100580000E941B01FF91EF91BF91AF919F918F91BD
:100590007F916F915F914F913F912F910F900FBE7F
:1005A0000F901F9018951F920F920FB60F92112463
:1005B0002F938F939F93EF93FF93E0913901F091E5
:1005C0003A018081E0913F01F091400182FD1BC022
:1005D0009081809142018F5F8F7320914301821738
:1005E00041F0E0914201F0E0E75DFE4F958F80938E
:1005F0004201FF91EF919F918F912F910F900FBE2C
:100600000F901F9018958081F4CF1F920F920FB614
:100610000F9211242F933F938F939F93AF93BF9388
:1006200080911B0190911C01A0911D01B0911E01B0
:100630003091160123E0230F2D3758F50196A11DA7
:10064000B11D2093160180931B0190931C01A09370
:100650001D01B0931E018091170190911801A09186
:100660001901B0911A010196A11DB11D80931701C6
:1006700090931801A0931901B0931A01BF91AF9103
:100680009F918F913F912F910F900FBE0F901F90D0
:10069000189526E8230F0296A11DB11DD2CF78949C
:1006A00084B5826084BD84B5816084BD85B5826077
:1006B00085BD85B5816085BD80916E008160809328
:1006C0006E00109281008091810082608093810091
:1006D00080918100816080938100809180008160A1
:1006E000809380008091B10084608093B1008091FC
:1006F000B00081608093B00080917A008460809324
:100700007A0080917A00826080937A0080917A00EA
:10071000816080937A0080917A00806880937A006B
:100720001092C10060E08EE00E94FE0162E082E073
:100730000E94FE0161E08DE00E94FE01E09139011E
:10074000F0913A0182E08083E0913501F091360129
:100750001082E0913701F09138018FEC8083109284
:100760004101E0913D01F0913E0186E08083E091FE
:100770003B01F0913C01808180618083E0913B01ED
:10078000F0913C01808188608083E0913B01F09191
:100790003C01808180688083E0913B01F0913C01C5
:1007A00080818F7D808320EB822E20E0922ECCE909
:1007B000D0E008E810E030E0A32E30E0B32E0E9435
:1007C0008C009093280180932701909326018093B9
:1007D0002501F4018491FE01E490F801F490FF20DA
:1007E00009F4B6C081110E94AA01EF2DF0E0EE0FCE
:1007F000FF1FEE58FF4FA591B4918C91E82291E034
:1008000080E009F490E0E92EF82EF0922401E092C5
:10081000230181E00E94D301EF2809F48DC02FB796
:10082000F89480911B0190911C01A0911D01B09141
:100830001E012FBF909322018093210180E00E942E
:10084000D3018091270190912801099620912501DB
:10085000309126018217930704F18FB7F894C09066
:100860001B01D0901C01E0901D01F0901E018FBF74
:10087000D0922001C0921F010E948C00909326010B
:10088000809325018091210190912201C81AD90AF3
:10089000F9E8CF16F3E1DF06A4F2C0901F01D09073
:1008A00020018091210190912201C81AD90A0D2CB2
:1008B000000CEE08FF084AE0C701B601F7FE0DC0C4
:1008C0006DE289E291E00E943D0166277727CB0126
:1008D0006C197D098E099F094AE00E945F0242E07F
:1008E00050E062E171E089E291E00E949D000E9487
:1008F0003A022B013C0188EEC82E83E0D82EE12C71
:10090000F12C0E943A026419750986099709683E1C
:10091000734081059105A8F321E0C21AD108E108CE
:10092000F10888EE480E83E0581E611C711CC1144A
:10093000D104E104F10429F7A114B10409F43FCF73
:100940000E940701882309F43ACF0E94000037CFA4
:10095000F12CE12C5ACFE9E2F1E01382128288EE09
:1009600093E0A0E0B0E084839583A683B78384E01E
:1009700091E09183808385EC90E09587848784EC77
:1009800090E09787868780EC90E0918B808B81EC5C
:1009900090E0938B828B82EC90E0958B848B86EC3D
:1009A00090E0978B868B118E128E138E148E089585
:1009B000A1E21A2EAA1BBB1BFD010DC0AA1FBB1F63
:1009C000EE1FFF1FA217B307E407F50720F0A21BD5
:1009D000B30BE40BF50B661F771F881F991F1A9442
:1009E00069F760957095809590959B01AC01BD016C
:1009F000CF010895EE0FFF1F0590F491E02D0994AB
:040A0000F894FFCF98
:100A0400000000003D019D00CA008A01FB00D900DE
:060A1400ED000D0A0000D8
:00000001FF
